:020000040000FA
:060000007BEF01F012008D
:0A0006000100740300006A0000000E
:0400100008000000E4
:0C001400D9CFE6FFE1CFD9FF020EE126B4
:10002000DE6ADD6ADECF10F0DDCF11F0FD0EDBCF32
:1000300012F0FE0EDBCF13F011501318E8AE02D011
:10004000133404D01250105C135011580AE2620E9F
:10005000E66E97EC01F0E552DF2A010E01E3DB2AA0
:10006000E1D7020EE15C02E2E16AE552E16EE5529F
:10007000E7CFD9FF12000C0EE66E040EE66EAD0E51
:10008000E66E44EC01F0E552E552E552050EE66EEF
:1000900097EC01F0E5521200B7EC01F0B2EC01F080
:1000A000000901E0FBD7A2EC01F0F3CF10F0F4CF90
:1000B00011F0D89011321032D89011321032105005
:1000C00000D01200D9CFE6FFE1CFD9FF020EE12622
:1000D0000A0E106E10C00CF0FE0EDBCF07F089EC9C
:1000E00001F00350DF6E0A0E106E10C00CF0FE0E11
:1000F000DBCF07F089EC01F0010E07C0DBFFDB501E
:10010000100DF350DF24106E020EE15C03E200D00C
:10011000E16AE552E16E1050E552E7CFD9FF1200D7
:10012000D9CFE6FFE1CFD9FFE6526AC0E9FF6BC045
:10013000EAFFEF6A010E6EC0E9FF6FC0EAFFEF6EE3
:100140009ADF70C0E9FF71C0EAFFEF6AA5DF106EA9
:10015000050E116E11C00CF010C007F089EC01F013
:100160000750E66EAFDFE552DF6EDF506CC0E9FF8F
:100170006DC0EAFFEF6EDF5020080CE270C0E9FFAF
:1001800071C0EAFFEF50FB0B70C0E9FF71C0EAFFDE
:10019000EF6E0BD070C0E9FF71C0EAFFEF500409A9
:1001A00070C0E9FF71C0EAFFEF6E100EDF5C0CE279
:1001B00070C0E9FF71C0EAFFEF50FD0B70C0E9FFAE
:1001C00071C0EAFFEF6E0BD070C0E9FF71C0EAFFAB
:1001D000EF50020970C0E9FF71C0EAFFEF6EB6D7B9
:0A01E000E552E552E7CFD9FF120007
:0601EA00060EF66E000E89
:1001F000F76E000EF86E00010900F550656F0900FA
:10020000F550666F03E1656701D03DD00900F550F8
:10021000606F0900F550616F0900F550626F0900C9
:100220000900F550E96E0900F550EA6E0900090071
:100230000900F550636F0900F550646F090009006B
:10024000F6CF67F0F7CF68F0F8CF69F060C0F6FF3F
:1002500061C0F7FF62C0F8FF0001635302E164531D
:1002600007E00900F550EE6E6307F8E26407F9D77E
:1002700067C0F6FF68C0F7FF69C0F8FF00016507B7
:08028000000E665BBFD71200FF
:08028800D9CFE6FFDACFE6FF53
:10029000E1CFD9FFE2CFDAFFC26AC06AFC0EDB40D1
:1002A0007F0B3C0BC26EFB0EDBCFE6FFFC0EDB3898
:1002B000F00B300BE552E710C16EFD0EDB50040D64
:1002C000F350380B116EFD0EDB380F0B070B106E61
:1002D000FD0EDB50800B10101110C06EFC0EDBAE5B
:1002E00003D09E9C9D8CF28CC280E552E5CFDAFF54
:0602F000E7CFD9FF120068
:0A02F60013EE00F023EE00F0F86AAA
:100300000F9CF5EC00F0B9EC01F090EC00F0FBD79D
:020310001200D9
:0E031200036A080EE76ED890073603360C50CB
:0E032000035C02E3036E072AE72EF7D71200F4
:02032E00FF0EC0
:10033000E350E84E1200000000D000D000D0E82EBC
:04034000FAD71200D6
:0C034400C450136E126AC3501210F36E06
:0603500013C0F4FF1200CF
:0A03560000EE00F00F0EEE6AEA62FE
:04036000FDD71200B3
:0A036400C250020B01E0010E12006E
:02036E00C28249
:02037000120079
:02037200120077
:08037400930F810F940F820F1B
:00000001FF
